:020000040800F2
:100000004021002001010008530C0008CB0100082A
:10001000510C0008030300082D0E0008000000002A
:10002000000000000000000000000000550C000867
:10003000050300080000000053010008570C0008E9
:100040001B0100081B0100081B0100081B01000820
:100050001B0100081B0100081B0100081B01000810
:100060001B0100081B0100081B0100081B01000800
:100070001B0100081B0100081B0100081B010008F0
:100080001B0100081B0100081B0100081B010008E0
:100090001B0100081B0100081B0100081B010008D0
:1000A0001B0100081B0100081B0100081B010008C0
:1000B0001B0100081B0100081B0100081B010008B0
:1000C0001B0100081B0100081B0100081B010008A0
:1000D0001B010008150E00081B0100081B01000889
:1000E0001B0100081B0100081B010008DFF80CD0F1
:1000F00000F0EEF800480047F5020008402100201B
:100100000648804706480047FEE7FEE7FEE7FEE7B1
:10011000FEE7FEE7FEE7FEE7FEE7FEE7150D000857
:10012000ED000008EFF3108072B6704780F310887E
:100130007047334A1368012B04D04FF0010313605A
:10014000304A1060304A116030484FF080510160F1
:100150007047EFF3108272B62948016891B14FF0F1
:10016000000101602748016829B1EFF3098121E905
:10017000F00F00680160244909680968B1E8F00FD0
:1001800081F3098882F310884EF0040E70471E49EF
:1001900008601C494FF00000086019494FF0010049
:1001A00008601B484FF47F01D0F8002041EA0201AB
:1001B000016016484FF080510160164800680068E1
:1001C00080F3088861B662B670471EF0040F0CBF5A
:1001D000EFF30880EFF3098020E9F00F40F804ED19
:1001E0001EF0040F0CBF80F3088880F3098800B567
:1001F00002F0AEF95DF804EB4EF0040E704700001B
:10020000B4000020AC000020B000002004ED00E0AD
:1002100020ED00E008ED00E040EA01039B0703D079
:1002200009E008C9121F08C0042AFAD203E011F835
:10023000013B00F8013B521EF9D27047D2B201E0F7
:1002400000F8012B491EFBD270470022F6E710B5DB
:1002500013460A4604461946FFF7F0FF204610BD34
:10026000421E12F8013F002BFBD111F8013B02F8AE
:10027000013B002BF9D1704710B5044604E00B7820
:1002800000F8013B03B1491C521EF8D2204610BDB4
:10029000421C10F8011B0029FBD1801A704703464D
:1002A00011F8012B00F8012B002AF9D118467047EC
:1002B00030B505460020034600E05B1C934205D2A2
:1002C000EC5CC85C201A01D1002CF6D130BD0000D6
:1002D000064C074D06E0E06840F0010394E8070093
:1002E00098471034AC42F6D3FFF704FF744100087E
:1002F0009441000810B5FFF715FF03F095FB0020AF
:1003000010BDFEE7704700002DE9F84FDFF8B89107
:10031000002409F1040A0AF1040B23460F270BF10C
:10032000040EC9E00125A5402A40AA427DD1674EAE
:10033000D1F804C0ACEB0608B44532D014DCBCF1F3
:10034000030F3AD009DCBCF1000F2AD0BCF1010F39
:100350001CD0BCF1020F31D11DE0BCF1110F17D040
:10036000BCF1120F2AD119E0B8F5881F19D006DCAC
:10037000B8F5803F15D0B8F5801F1FD111E0B8F552
:10038000001F0ED0B8F5041F18D10AE0CB6815E0A5
:10039000CB681B1D12E0CB6808330FE0CB680C3331
:1003A0000CE08B682BB1012B4FF0080303D04561A3
:1003B00004E0042302E0056100E00023FF2A01D8E5
:1003C000064601E000F104064FEA840501D9A5F1D3
:1003D0002005D6F8008007FA05FC28EA0C0803FA85
:1003E00005F548EA0508C6F800804D68ED0062D5BD
:1003F000374DAE6946F00106AE61AD6924F00306E3
:1004000005F001050095334D06EB050CDCF80850AE
:10041000A607360F07FA06F825EA0805DFF8B880C0
:10042000404503D14FF0000817E044E0DFF8AC800E
:10043000404502D14FF001080FE0DFF8A4804045AD
:1004400002D14FF0020808E0DFF89880404502D161
:100450004FF0030801E04FF0040808FA06F848EAF4
:100460000508CCF808804D68D9F80060ED034D46CA
:1004700001D5164300E096432E604D68DAF800601F
:10048000AD03554601D5164300E096432E604D68F6
:10049000DBF80060ED025D4601D5164300E09643AF
:1004A0002E604D68DEF80060AD02754601D516433A
:1004B00000E096432E60641C0D682A46E5407FF4F8
:1004C00031AFBDE8F88F00000004014000001110BA
:1004D000001002400000014000080140000C0140F3
:1004E0000010014000140140C2680A4201D041617D
:1004F0007047016170470AB1016170470904FBE769
:10050000014880687047000010000020074810B5BF
:10051000016841F010010160032000F075F800202F
:1005200000F006F800F024F8002010BD0020024082
:1005300070B50D4D04464FF47A712878B1FBF0F098
:100540000A490968B1FBF0F000F0ECFA48B9102C48
:1005500007D200222146501E00F036F800206C60C1
:1005600070BD012070BD0000100000201C000020A4
:100570000C4808B5816941F001018161816901F090
:1005800001010091C16941F08051C161C06900F071
:10059000805000900448416821F0E06141F0007112
:1005A000416008BD0010024000000140002809DB46
:1005B00000F01F02012191404009800000F1E0207D
:1005C000C0F8001170470000F0B40E4B1B680C46D9
:1005D000C3F30223C3F10705042D00D90425191D17
:1005E000072901D2002300E0DB1E012606FA05F1EF
:1005F000491E214099409E40761E16403143F0BC72
:1006000000F015BC0CED00E0064900F00702086898
:100610004FF6FF03184040EA0220034A10430860E7
:10062000704700000CED00E00000FA052DE9F047EE
:100630000F46050061D0434E306800F00700B84215
:1006400009D2306820F0070038433060306800F08D
:100650000700B84251D128683B4C810712D54007AA
:1006600003D5606840F4E06060602878000703D537
:10067000606840F4605060606068A96820F0F00035
:10068000084360602878C00728D06868012810D027
:100690002168022810D0890700292EDA616821F02C
:1006A000030101436160FFF72BFF804641F2883967
:1006B0000DE021688903EFE78901EDE7FFF720FFEF
:1006C000A0EB0801494502D90320BDE8F087606826
:1006D000696800F00C00B0EB810FEFD1306800F0DA
:1006E0000700B8420BD9306820F00700384330606B
:1006F000306800F00700B84201D00120E5E7287813
:10070000400705D56068E96820F4E0600843606050
:100710002878000706D56068296920F4605040EA0F
:10072000C100606000F038F86168084AC1F3031145
:10073000515CC8400649086006480068FFF7F8FEAB
:100740000020C2E70020024000100240203D0008C7
:100750001C00002014000020044805490068496876
:10076000044AC1F30221515CC84070471C000020BC
:1007700000100240303D00080448054900684968FF
:10078000044AC1F3C221515CC84070471C000020DC
:1007900000100240303D000812A185B00FC98DE85D
:1007A0000F0014A0144A006804905168134801F027
:1007B0000C03042B10D0082B0ED1C1F38343C903C3
:1007C0001DF803000AD5516804AAC1F34041515CE9
:1007D0000A4A5043B0FBF1F005B07047084948435E
:1007E000FAE7000002030405060708090A0B0C0DCE
:1007F0000E0F1010010200000010024000127A00DB
:1008000000093D002DE9F84F040070D02078C04D5C
:10081000C00749D06868C0F38100012807D0686824
:10082000C0F38100022809D16868C00306D5286892
:10083000800339D560680028E7D035E06068B0F5FE
:10084000803F0BD010B1B0F5A02F11D0286820F454
:1008500080302860286820F4802002E0286840F476
:1008600080302860606890B1FFF74AFE06460AE0D3
:10087000286840F480202860F0E700BFFFF740FEC2
:10088000801B642873D828688003F7D50CE0FFF735
:1008900037FE064605E000BFFFF732FE801B6428E6
:1008A000F0D828688003F7D420789A4E80074FF05C
:1008B00001094FF0000839D5686810F00C0F07D017
:1008C0006868C0F38100022809D16868C00306D4B3
:1008D0002868800714D52069012808D110E0206914
:1008E000B0B1C6F80090FFF70BFE074605E00AE13D
:1008F000FFF706FEC01B0228C4D828688007F7D57A
:100900002868616920F0F80040EAC10028600DE025
:10091000C6F80080FFF7F4FD074604E0FFF7F0FD9E
:10092000C01B022823D828688007F7D42078000746
:100930002CD57948A169D9B1C0F80090FFF7E0FD46
:10094000074604E0FFF7DCFDC01B02280FD8686AE9
:100950008007F7D571484FF4FA510068B0FBF1F009
:10096000009000BF0098411E0091FAD20EE080E096
:10097000C0F80080FFF7C4FD074604E0FFF7C0FDA4
:10098000C01B022875D8686A8007F7D42078400712
:1009900060D5E8690027C00008D4E86940F08050BD
:1009A000E861E869012700F0805000905C48016828
:1009B000C90513D40168834641F480710160FFF7D3
:1009C0009FFD824606E000BFFFF79AFDA0EB0A00FC
:1009D00064284ED8DBF80000C005F5D5E068012892
:1009E0000AD008B1052813D0286A20F00100286237
:1009F000286A20F0040002E0286A40F00100286222
:100A0000E06841F2883B98B1FFF77AFD82460BE03F
:100A1000286A40F004002862EEE700BFFFF770FD8F
:100A2000A0EB0A0159455AD8286A8007F6D50CE090
:100A3000FFF766FD824605E0FFF762FDA0EB0A01C5
:100A400059454CD8286A8007F6D41FB1E86920F0D0
:100A50008050E861E06988B36968C1F381010229C7
:100A600044D00228C6F8608004D0FFF749FD044650
:100A700038E034E0FFF744FD074604E0FFF740FDAF
:100A8000C01B02282BD828688001F7D4206AB0F553
:100A9000803F05D16868A16820F400300843686091
:100AA000D4E908010843696821F4741108436860B7
:100AB000C6F86090FFF724FD044606E025E000BF7D
:100AC000FFF71EFD001B022809D828688001F7D512
:100AD0001BE000BFFFF714FD001B022802D9032012
:100AE000BDE8F88F28688001F4D40EE00128F7D023
:100AF0006868226A00F48031914204D1616A00F48E
:100B00007010884201D00120EAE70020E8E70000E9
:100B10000010024000004242800442421C000020BB
:100B20000070004010B5401EB0F1807F01D301205D
:100B300010BD4FF0E02460610F21601700F077F9DD
:100B40000020A06107202061002010BD70B50400C6
:100B500004D094F83900002510B106E0012070BDE2
:100B600084F83850204600F023F8242084F8390017
:100B70002068C16821F40051C160204600F0EEF801
:100B80002068016921F4904101612068416921F0E8
:100B90002A0141612068C16841F40051C160E563E8
:100BA000202084F8390084F83A00002070BD00004D
:100BB00030B585B000240094019402940394006839
:100BC000184988422CD11848816941F480418161DB
:100BD000816901F480410491816941F004018161DE
:100BE0008069124D00F0040004904FF400700090F2
:100BF000022001900320039069462846FFF784FBFA
:100C00002815CDE90004694628460294FFF77CFBCD
:100C1000002211462520FFF7D7FC2520FFF7C6FC50
:100C200005B030BD0038014000100240000801400E
:100C30007047000010B54FF400510448FFF754FC12
:100C4000BDE810404FF4FA7002F067BB001001409D
:100C5000FEE77047704710B501F03CFE02F0BEFCA5
:100C6000BDE8104001F04ABE10B590B0282168469A
:100C7000FFF7EBFA14210AA8FFF7E7FA0220009029
:100C80000120049010200024059007946846FFF787
:100C9000B9FD0F20CDE90A040C940D9400210AA897
:100CA0000E94FFF7C3FC10B010BD0000144910B53E
:100CB0004868144A10F00C03134803D0042B01D0E9
:100CC000082B09D002604968104AC1F30311515C36
:100CD0000268CA40026010BD4A684B6802F4701294
:100CE0004FF0020413F4803F04EB924202D04B68B1
:100CF0009B0301D5064B00E0024B5A43E2E700009C
:100D00000010024000127A001C000020203D000864
:100D100000093D000D48016841F001010160416892
:100D20000B4A1140416001680A4A114001600168A4
:100D300021F480210160416821F4FE0141604FF4FB
:100D40001F0181600449C003086070470010024021
:100D50000000FFF8FFFFF6FE08ED00E02DE9F0418E
:100D6000044600680169E26821F4405111430161C1
:100D70002169A0680843616908432168CA6841F293
:100D80000C639A430243CA6020684169A26921F456
:100D90004071114341611E49206864253226884212
:100DA00002D1FFF7E9FC01E0FFF7D6FC00EBC00140
:100DB00001EB001160686FF018078000B1FBF0F2E2
:100DC000B2FBF5F2B1FBF0F37A4303EB8202B1FB25
:100DD000F0F306EB0212B2FBF5F2B3FBF5F302F00F
:100DE000F00202EB0312B1FBF0F3B1FBF0F0B0FB49
:100DF000F5F0784303EB800006EB0010B0FBF5F054
:100E0000216800F00F0010448860BDE8F081000008
:100E10000038014010B501F05DFD034802F0B2FE5C
:100E2000BDE8104001F06ABD50010020FEE709074F
:100E3000090E002804DB00F1E02080F80014704760
:100E400000F00F0000F1E02080F8141D7047000052
:100E5000002806D00E4910F0FF0F03D0C0B2085C86
:100E6000401C704710F47F4F04D0C0F30720085C8B
:100E70000930704710F47F0F04D0C0F30740085CBE
:100E80001130704701EB1060007819307047000096
:100E9000383D000802E008C8121F08C1002AFAD134
:100EA00070477047002001E001C1121F002AFBD1EA
:100EB0007047000003480168814201D0012070475B
:100EC0000020704794000020F0B597B005465022EE
:100ED000174902A8FFF7A0F916A42946204601F0F9
:100EE00033F807460146224614A001F015FD3846A6
:100EF00001F046F81BA001F00FFD02AE2C6811E0D6
:100F0000207AA17BA4F10C03132802D856F8200004
:100F100000E01598CDE90001082239461AA001F039
:100F2000FBFC2468AC42EBD117B00020F0BD000000
:100F3000F43E00086465766963650000252D2A2E5D
:100F4000732020202020202020207479706520200C
:100F50002020202020202072656620636F756E742B
:100F60000A000000202D2D2D2D2D2D2D2D2D2D2D68
:100F70002D2D2D2D2D2D2D2D2D202D2D2D2D2D2DAE
:100F80002D2D2D2D0A000000252D2A2E2A73202517
:100F90002D32307320252D38640A00002DE9FC41E4
:100FA000074626A40146204600F0CEFF80460146B3
:100FB000224625A001F0B0FC404600F0E1FF29A048
:100FC00001F0AAFC3D6833E0A96805F10800A5F12D
:100FD0000C04814220D0064601F0DEFCA18BCDE955
:100FE000001023460822414624A001F095FC3468F5
:100FF0000CE000BFA4F1140124A001F08DFC2068D6
:10100000B04202D022A001F087FC2468B442F1D1A2
:1010100013A001F081FC0AE001F0BEFCA18BCDE938
:1010200000102346082241461AA001F075FC2D68E5
:10103000BD42C9D10020BDE8FC81000073656D612F
:1010400070686F7265000000252D2A2E73207620AF
:10105000202073757370656E6420746872656164B6
:101060000A000000202D2D2D202D2D2D2D2D2D2D74
:101070002D2D2D2D2D2D2D0A00000000252D2A2E81
:101080002A7320253033642025643A00257300003C
:101090002F000000252D2A2E2A73202530336420AE
:1010A00025640A002DE9FC41064628A40146204695
:1010B00000F04AFF074601462246264801F02CFC74
:1010C000384600F05DFF24A001F026FC356838E0CA
:1010D00095F82900A5F10C04009023460822394612
:1010E0002DA001F019FC94F8340000F00F00012845
:1010F00005D0022805D030B1042806D008E029A088
:1011000004E02BA002E02DA000E02FA001F004FCE1
:10111000A06A014600E0401C0278232AFBD0E26A64
:1011200064231144081A5843B0FBF2F3D4F830C0DA
:10113000206CCDE9000CE069091A26A001F0ECFB57
:101140002D68B542C4D10020BDE8FC817468726589
:1011500061640000783F0008202D2D2D20202D2DCA
:101160002D2D2D2D2D202D2D2D2D2D2D2D2D2D2DBC
:10117000202D2D2D2D2D2D2D2D2D2D20202D2D2DC6
:101180002D2D2D20202D2D2D2D2D2D2D2D2D2D20B6
:101190002D2D2D0A00000000252D2A2E2A73202532
:1011A0003364200020726561647920200000000013
:1011B0002073757370656E640000000020696E69AD
:1011C000742020200000000020636C6F73652020D5
:1011D0000000000020307825303878203078253025
:1011E000387820202020253032642525202020300A
:1011F000782530387820253033640A002DE9FC4109
:10120000054619A40146204600F09EFE064601460A
:10121000224617A001F080FB304600F0B1FE1EA070
:1012200001F07AFB2C6814E0A4F10C031F4608229D
:10123000D7E90901CDE90001314620A001F06CFB9E
:10124000787AC00701D023A000E025A001F064FB5C
:101250002468AC42E8D102F0BBF9014624A001F0B9
:101260005BFB0020BDE8FC8174696D6572000000C5
:10127000252D2A2E732020706572696F64696320A2
:10128000202074696D656F75742020202020202037
:10129000666C61670A000000202D2D2D2D2D2D2D4F
:1012A0002D2D2D202D2D2D2D2D2D2D2D2D2D202D88
:1012B0002D2D2D2D2D2D2D2D2D2D0A00252D2A2EB8
:1012C0002A732030782530387820307825303878E7
:1012D000200000006163746976617465640A00002F
:1012E00064656163746976617465640A0000000076
:1012F00063757272656E74207469636B3A30782519
:101300003038780A000000002DE9F04F89B092468D
:101310008B460646002400E0641C305D202803D084
:10132000092801D05C45F7D34FF0FF387CB319484A
:1013300004F10609184F056811E0062217A1286874
:10134000FEF7B6FF50B9286822463146801DFEF7E9
:10135000AFFF18B9296811F8090020B108353868BD
:101360008542EAD314E06C688CB120216846FEF710
:101370006CFF6A465946304600F07EFD38B169463A
:10138000A047CAF80000002009B0BDE8F08FFFE7D1
:101390004046F9E7C0000020C40000205F5F636D95
:1013A000645F00002DE9FC411F460446DDE9083179
:1013B000DDE90A65143040600060C4E90827C4E92B
:1013C0000A310A46232118461C3401F093FBD4E964
:1013D00003014218D4E90101104B121F01F030FA49
:1013E00044F81A0B002004F801690D4A04F8036B55
:1013F000E4E8020544F8105901C404F83C0B01C4A8
:1014000044F87409009023460190194604F1440001
:1014100002F056F90020BDE8FC81000021330008ED
:101420004F35000810B5029C24F001044472C0E955
:1014300007120021C0E9093114304060006010BD7E
:10144000F0E905124A60D0E90012116040600060C6
:101450007047000010B51BA001F05EFA1C4C21780B
:101460001CA001F059FA2078C00702D01FA001F09B
:1014700053FA2078800702D51FA001F04DFA20789A
:10148000400702D51FA001F047FA2078000702D5D7
:1014900020A001F041FA2078C00602D520A001F07A
:1014A0003BFA2078000607D509480F300168BDE8EF
:1014B00010401DA001F030BABDE810401EA001F0A0
:1014C0002BBA0000627573206661756C743A0A006D
:1014D00029ED00E05343425F434653525F42465377
:1014E000523A307825303258200000004942555396
:1014F0004552522000000000505245434953455286
:1015000052200000494D5052454349534552522004
:1015100000000000554E53544B455252200000002D
:1015200053544B45525220005343422D3E424641B4
:10153000523A253038580A000A00000010B500F071
:10154000CBFA002010BD10B500F005FB002010BD47
:1015500000207047104810B5416891F821108907A4
:1015600003D40E490020087013E0016821B18022E5
:101570000A48FEF781FE0CE000F07CFC08B108A1EF
:1015800000E009A10548FEF78AFE09A10348FEF71D
:1015900067FE024810BD0000B8000020BC1C0020FF
:1015A0006D7368200000000066696E73682000009B
:1015B0003E000000034810B5406801F0CBFB00205E
:1015C00010BD0000B800002070B5044600F040FED9
:1015D000050027D0174C6068406FA84228D040F221
:1015E0004311284600F05EFE002821D16068406F5C
:1015F00030B100F015FE60680021406F00F0D1FEB0
:10160000606850212230FEF720FE6068002180F8DB
:10161000721080F8731045672846BDE8704006498F
:1016200000F0BFBE2146BDE8704004A001F074B9CF
:1016300070BD0000B8000020B515000866696E7323
:10164000683A2063616E206E6F742066696E642054
:101650006465766963653A2025730A000349496821
:1016600011F8212F60F341020A707047B800002082
:10167000024A10600248016070470000C00000206C
:10168000C40000207CB516491648FFF7F1FF782109
:10169000012000F059FD144C6060D0B10A210520F2
:1016A000CDE900014FF480530022104910A001F051
:1016B00010FE054600231A460FA1606801F038FBB2
:1016C0000120FFF7CBFF15B1284601F009FF0020EC
:1016D0007CBD0BA001F020F94FF0FF307CBD000075
:1016E00074410008EC400008B800002019170008F9
:1016F000747368656C6C0000736872780000000099
:101700006E6F206D656D6F727920666F72207368E1
:10171000656C6C0A00000000A54C08B5606890F884
:10172000211041F0010180F82110406F20B900F034
:101730005DFD08B1FFF748FFFFF70CFF01F0ECF883
:101740004FF0FF36002703E03146606801F01DFBD3
:10175000606801236A46406F314600F0F7FD0128BA
:10176000F2D19DF800501B2D07D0606890F8201032
:10177000012907D002290ED017E06168012081F805
:101780002000E5E75B2D02D080F820700DE00221FB
:1017900080F82010DCE780F82070412DD8D0422D51
:1017A000D6D0442D38D0432D42D0002DD0D0FF2D9F
:1017B000CED0092D4DD07F2D74D0082D72D00D2D97
:1017C0006FD00A2DFCD090F87210502901D380F808
:1017D000727090F8733090F872108B427ED2CA1AF1
:1017E00000F1220123301944184401F069F96068BE
:1017F00090F8731022300D54606890F82110C907DA
:1018000006D090F87310223001446AA001F084F8E9
:10181000616891F87350A8E090F87300002897D0A1
:1018200065A001F079F8606810F8731F491E0EE09A
:1018300090F8731090F87220914289D22230095C9E
:101840005EA001F069F8606810F8731F491C017010
:101850007EE7002503E058A001F05EF86D1C60688B
:1018600090F87300A842F6DC656855A0223501F0B7
:1018700053F800F0FFFA012802D1284600F03CFAA4
:10188000FFF768FE01462A464EA001F045F8606861
:101890002230FEF7FDFC616801F8720F487057E7CF
:1018A00000E03FE090F873100029D1D090F872204A
:1018B000491E521ED2B2C9B280F87220254680F865
:1018C00073108A4225D900F123032230521A0B44A7
:1018D0000844194601F0F4F8606800E04BE090F825
:1018E000721022300F54606890F873102230014457
:1018F00036A001F011F8606890F8735003E02EA054
:1019000001F00AF86D1C606890F87200A8429FDB35
:10191000F5E730A001F000F8686890F87210223006
:101920000F5415E700F0A6FA01280ED1606825468D
:1019300090F82100C00702D021A000F0EDFF6868F8
:1019400090F87210223000F02DFAFFF703FE00F03D
:10195000E3FF6068502125462230FEF776FC686878
:1019600022E015A000F0D8FF6D1C606890F87200AE
:10197000A842F6DC0AE022300D54606890F821009D
:10198000C00703D029460DA000F0C6FF606890F89C
:101990007210491CC9B280F8721090F87320521C62
:1019A00080F873205029BCD300F8727F4770CFE6CF
:1019B000B800002025730000080000002563000027
:1019C0000A0000002573257300000000082573201D
:1019D000200800000820080010B5124C206880077D
:1019E00002D511A000F098FF2068400011D50D48E5
:1019F000C01E007808B1FFF72DFD0A48001F0078CF
:101A000008B100F00DF90748801E008808B102F007
:101A10000DF92068002804DABDE8104008A000F0A5
:101A20007BBF10BD2CED00E06661696C65642076BB
:101A30006563746F722066657463680A0000000055
:101A40006465627567206576656E740A0000000043
:101A500010B502A000F060FF002010BD48656C6C5E
:101A60006F2052542D546872656164210A00000091
:101A700070B50BA000F050FF0E480F4D04680AE04F
:101A800002220EA12068FEF713FC18B10CA02168F9
:101A900000F042FF083428688442F1D3002070BD72
:101AA0002D2D46756E6374696F6E204C6973743AA0
:101AB0000A000000C0000020C40000205F5F00009A
:101AC00025730A0010B5082001F082F8BDE8104027
:101AD000001DFFF7F9B9000010B5074C07A0E16839
:101AE00000F01AFF0AA0216900F016FF6169BDE845
:101AF00010400CA000F010BF30000020746F746123
:101B00006C206D656D6F72793A2025640A000000C3
:101B100075736564206D656D6F7279203A20256458
:101B20000A0000006D6178696D756D20616C6C6FE5
:101B30006361746564206D656D6F72793A20256408
:101B40000A00000010B5012001F042F8BDE8104085
:101B5000001DFFF723BA10B5002001F039F8BDE8E9
:101B60001040001DFFF79EBA10B5092001F030F8B3
:101B7000BDE81040001DFFF741BB000086B0FEF736
:101B8000C5FCFFF771F800241D48009401940294ED
:101B90000394816941F010018161816901F01001B4
:101BA0000491816941F0040181618069012200F0A2
:101BB0000400144E5503049029463046FEF79BFC62
:101BC00001210320CDE90210CDE9005169463046DC
:101BD000FEF79AFB0D480C4901604FF4E131C0E972
:101BE00001140C21C460C0E904418461C461FEF7A2
:101BF000ADFFFFF71DF800BFFFF71CF8FCE7000082
:101C0000001002400010014000380140C8000020D0
:101C100010B500F0DDFABDE81040FFF7AFBF0000DF
:101C200010B518A000F078FE1B4C21781BA000F026
:101C300073FE2078C00702D01EA000F06DFE207851
:101C4000800702D51EA000F067FE2078000702D5AD
:101C50001EA000F061FE2078C00602D51EA000F094
:101C60005BFE2078000607D50B480C300168BDE804
:101C700010401CA000F050BEBDE810401D4800F010
:101C80004BBE00006D656D206D616E6167652066FD
:101C900061756C743A0A000028ED00E05343425F1E
:101CA000434653525F4D4653523A307825303258AE
:101CB000200000004941434356494F4C200000009A
:101CC0004441434356494F4C200000004D554E536C
:101CD000544B4552522000004D53544B4552522014
:101CE000000000005343422D3E4D4D41523A2530F5
:101CF00038580A009C3C00082DE9F0478046002532
:101D000000782C4618B12248224F066831E0BDE821
:101D1000F0470021084600F077B806221EA130687F
:101D2000FEF7C6FA20BB306800F106094046FEF710
:101D3000AFFA024649464046FEF7BAFAC0B925B99D
:101D40004C464846FEF7A4FA05464946204601E0BF
:101D5000401C491C02781AB10B780BB19A42F7D09B
:101D6000001BA84200DA054649460DA000F0D4FD4C
:101D7000083638688642D0D3002C06D02A46214641
:101D80004046BDE8F04701F005BABDE8F087000025
:101D9000C0000020C40000205F5F636D645F00002E
:101DA00025730A0038B5044601E0491E641C2078FA
:101DB0002028FAD00928F8D031B16A462046FFF72A
:101DC000A3FA18B1204604E0002038BD009838BDC1
:101DD000401C0178202901D00029F9D1002101708F
:101DE000214603A000F098FD4FF0FF3038BD000001
:101DF00025733A20636F6D6D616E64206E6F742081
:101E0000666F756E642E0A0070B50DA000F084FD3B
:101E10001248134D04680BE0062212A12068FEF759
:101E200047FA20B9216811A0891D00F075FD08341A
:101E300028688442F0D30EA000F06EFD002070BD33
:101E400052542D546872656164207368656C6C200F
:101E5000636F6D6D616E64733A0A0000C00000200C
:101E6000C40000205F5F636D645F00002573200085
:101E70000A0000000120704770B5002315461C467B
:101E80001A464BE000F8012B5B1C0678202E01D08F
:101E9000092E01D18B42F5D3082C11D321A000F0DB
:101EA0003BFD002606E000BF55F8261025A000F0F7
:101EB00033FD761CA642F7D321A000F02DFD2FE0C4
:101EC0008B422DD2F6B2222E03D045F82400641C9A
:101ED0001BE0401C45F824005B1C641C08E05C2EE1
:101EE00004D14678222E01D1401C5B1C401C5B1C97
:101EF0000678222E01D08B42F1D38B4210D200F80B
:101F0000012B5B1C0AE0401C5B1C0678202E03D0D2
:101F1000092E01D08B42F6D38B4201D28B42B4D32F
:101F2000204670BD546F6F206D616E7920617267BD
:101F3000732021205765206F6E6C79205573653AA8
:101F40000A0000002573200070B50E4601F00AF962
:101F5000054600F03BFA346808E000BFA4F10C002D
:101F600001F000F9A84200DD05462468B442F5D12D
:101F700000F03AFA082D00DC05B90825284670BDA6
:101F800010B5044602E003A000F0C6FC641EFAD2BD
:101F900010BD00002D00000030B5134943680A68E9
:101FA000134402F1080498420DD05D885DB94D6874
:101FB000AB4208D08D689D4200D188605D68456065
:101FC0005B68851A1D518368134483420BD05D887A
:101FD000002D08D18D68854200D18B604168596021
:101FE0004068991A015130BD300000202DE9F04FB2
:101FF00085B09946DDE90EA5109CAB46630602D577
:10200000DFF814C103E0DFF810C1ACF1110CE306F6
:1020100001D524F00104E30701D0302300E02023A0
:1020200000260493A3070BD5002A02DA2D2652427C
:1020300006E0630701D52B2602E0230700D5202602
:102040000023EE4622B930228DF8002001230CE057
:10205000B9F10A0F14D002F00F0812091CF8088019
:102060000EF803805B1C002AF2D1AB4200DD1D4656
:10207000AAEB050214F0110F4FF0200708D015E06D
:102080000A27B2FBF7F807FB1828B2FBF7F2E5E7DF
:102090003EB1002A05DD521E03E0884200D80770D9
:1020A000401CB2F1000CA2F10102F6DC26B188421C
:1020B00001D80670521E401CE40605D508E088428F
:1020C00001D8049C0470401C141EA2F10102F6DC2D
:1020D00030242E466D1E9E420ADD884200D80470D0
:1020E000401CF6E7884201D8E55C0570401C00E022
:1020F00074461D1EA3F1010307DDBBF1000FF1D1F2
:1021000003E0884200D80770401C131EA2F10102B0
:10211000F7DC05B0BDE8F08F493E00081CB514217E
:102120000A20CDE900014FF480630022034904A096
:1021300001F0CFF8BDE81C4001F0D2B9111C000835
:102140006D61696E0000000070B54843044600F000
:102150003FFC050003D02246002100F0CBFC2846BE
:1021600070BD70B504460068012816D0FDF7DAFF8F
:102170000546012001C42068A04209D0143801F0AE
:102180006BF92846FDF7D2FFBDE8704000F058BD5E
:102190002846BDE87040FDF7C9BF70BD10B50446C4
:1021A000FDF7C0FF002102C464602460BDE8104058
:1021B000FDF7BCBF70B5044C044D02E020688047B9
:1021C000241DAC42FAD370BDDC400008E04000089A
:1021D00070B5044C044D02E020688047241DAC42D9
:1021E000FAD370BDE0400008E840000801480068EC
:1021F000704700002800002070B5084C266800F0E9
:1022000027F8050008D0206808B100F009F843213C
:10221000284600F047F82560304670BD28000020B1
:1022200010B504460020A17E29B1491E11F0FF011E
:10223000A17603D010BD4FF0FF3010BDE16A21B18F
:102240002046884708B1811DF7D10021218310BDA8
:102250002DE9F041064601F01DF908B100F0B6F88D
:10226000082000F0B5FC50F8044F074609E000BF15
:10227000A4F10C0508223146284600F07BFF50B13E
:102280002468BC42F4D101F005F908B100F0ACF8C3
:102290000020BDE8F08101F0FDF808B100F0A4F8DD
:1022A0002846F6E770B50446807D00250E46C00638
:1022B0000FD4616A49B120468847050005D002461F
:1022C000214614A000F028FB21E0E08A40F0100035
:1022D000E082A07D000705D5207E000702D56FF0C3
:1022E000060070BDA26A3AB131462046904705000B
:1022F00006D0A81D04D00AE040F60F7006402683E1
:10230000208B40F008002083A07E401CA076284649
:1023100070BD0000546F20696E697469616C697AE0
:1023200065206465766963653A2573206661696C2A
:1023300065642E20546865206572726F7220636F29
:1023400064652069732025640A00000010B5847E4E
:102350002CB1046B34B1A446BDE8104060474FF087
:10236000FF3001E06FF0050000F094FE002010BD8A
:102370002DE9F041154604000F464FF0FF3603D01B
:102380000846FFF765FF10B13046BDE8F0813A46D8
:102390000821204600F02EFCE5820020A076208354
:1023A000F3E7C1610020704710B5847E2CB1446B07
:1023B00034B1A446BDE8104060474FF0FF3001E063
:1023C0006FF0050000F066FE002010BD10B5FDF7AF
:1023D000A9FE044A5188491C5180BDE81040FDF710
:1023E000A5BE00008800002010B5FDF79BFE09493E
:1023F0004A88521E12B24A80002A07DC00224A8014
:10240000FDF794FEBDE8104000F01ABCBDE8104096
:10241000FDF78CBE8800002070B5002833D01A4D1F
:10242000296888422FD3696888422CD2A0F10C0415
:102430004FF0FF31154800F0A8FC60884FF4F556C6
:1024400010B12088B04208D011A000F065FA2388AE
:102450006288214615A000F05FFA00206080268087
:10246000A868844200D2AC6029686068611A401A8A
:102470002969081A28612046FFF78EFDBDE87040E3
:10248000024800F067BC70BD300000209C1B00209B
:10249000746F2066726565206120626164206461EA
:1024A000746120626C6F636B3A0A00006D656D3A6F
:1024B000203078253038782C207573656420666C60
:1024C00061673A2025642C206D6167696320636F22
:1024D00064653A203078253034780A000048704727
:1024E000A401002000487047A419002010B5FEF791
:1024F000DDFB12484FF47A710068B0FBF1F0401E2A
:10250000B0F1807F09D24FF0E0210D4A4861FF20F1
:102510001070002088610720086100F0ADF9FFF716
:1025200049FE08A0FFF768FEFFF7DCFF0446FFF74F
:10253000D5FF2146BDE8104000F040BE1C00002041
:1025400023ED00E0756172743100000070470000F7
:1025500070B50546041D2D48016819B12846884705
:10256000002851D02AA0E16B00F0D6F92CA0216AF6
:1025700000F0D2F92EA0616A00F0CEF930A0A16A75
:1025800000F0CAF932A0E16A00F0C6F934A021686F
:1025900000F0C2F936A0616800F0BEF938A0A16869
:1025A00000F0BAF93AA0E16800F0B6F93CA0216960
:1025B00000F0B2F93EA0616900F0AEF940A0A16957
:1025C00000F0AAF942A0E16900F0A6F944A0216B4D
:1025D00000F0A2F946A0616B00F09EF948A0A16B43
:1025E00000F09AF92878400708D500F053FF01461B
:1025F00047A000F091F9FFF7AEFA02E04CA000F01E
:102600008BF9FFF7E9F9FEE770BD0000A800002094
:102610007073723A203078253038780A0000000054
:102620007230303A203078253038780A00000000C7
:102630007230313A203078253038780A00000000B6
:102640007230323A203078253038780A00000000A5
:102650007230333A203078253038780A0000000094
:102660007230343A203078253038780A0000000083
:102670007230353A203078253038780A0000000072
:102680007230363A203078253038780A0000000061
:102690007230373A203078253038780A0000000050
:1026A0007230383A203078253038780A000000003F
:1026B0007230393A203078253038780A000000002E
:1026C0007231303A203078253038780A0000000026
:1026D0007231313A203078253038780A0000000015
:1026E0007231323A203078253038780A0000000004
:1026F000206C723A203078253038780A00000000CB
:102700002070633A203078253038780A00000000C5
:1027100068617264206661756C74206F6E207468E5
:10272000726561643A2025730D0A0D0A00000000ED
:1027300068617264206661756C74206F6E206861D8
:102740006E646C65720D0A0D0A0000002DE9F041FF
:102750000546C8B2012806D002284CD1286DBDE834
:10276000F041FFF7FEBCEC6C0027286CC1682846DE
:1027700088470646401C22D0FDF7D4FC0146A288BB
:1027800020688654A088401C80B2A080AA6CC2F346
:102790008F22904200D3A780A288E08882420AD18B
:1027A000401C80B2E0800122A260AA6CC2F38F229A
:1027B000904200D3E7800846FDF7B8FCD5E7E8690A
:1027C000002818D0FDF7AEFC0246A088E1888842B8
:1027D00001D3441A04E0081AA96CC1F38F210C1A22
:1027E0001046FDF7A3FC002C05D021462846EA69D7
:1027F000BDE8F0411047BDE8F081000030B400248E
:102800000475C4610462084C4462084C8462084C3C
:10281000C462084C0463084C4463084CC0E90E438E
:1028200030BC92B2FFF7A4BDF32E00080D2F0008B4
:10283000392E0008E12F000853300008932E0008BD
:1028400070B50446121D22F007000022094D4038E1
:1028500040F82250521C102AFAD301620021416232
:1028600081624FF0807200F13005C263C16285E879
:102870001A0070BDEFBEADDE2DE9F05F12480125F4
:10288000DFF848A0D0E90067DFF84480002400F1B9
:10289000080940F2031B00BFC4EBC40101EB441262
:1028A00008EB82030AEB0410C3F888901864C3E9AC
:1028B0002367016803F148005A46FFF79FFF641C35
:1028C000AC42E9D3BDE8F09F083D000800000020BD
:1028D0000801002010B5FDF725FC044A1178491CB9
:1028E0001170BDE81040FDF721BC0000240000205D
:1028F00001480078704700002400002010B5FDF763
:1029000011FC044A1178491E1170BDE81040FDF712
:102910000DBC0000240000200FB47F2170B505AB72
:102920000D48049A00F03EFF03467F2800D97F231C
:102930000A4D286860B1048B074A44F040010183C6
:102940000021FFF731FD2868048370BC5DF814FB9B
:102950000148FFF7FBFDF8E71C1B002028000020C2
:102960000268516002680A6001604860704702684E
:10297000516002680A6001604860704702685160F7
:1029800002680A60016048607047426811604268EE
:102990004A604160086070470246002100E0491C1F
:1029A00000689042FBD108467047D0E900124A60A7
:1029B000D0E900121160406000607047D0E9001259
:1029C0004A60D0E90012116040600060704700006A
:1029D0002DE9F047002807D0374CC01C20F0030633
:1029E000E068864202D90020BDE8F0870C2E00D2B4
:1029F0000C264FF0FF31314800F0C7F9D4F808C079
:102A00002168E768ACEB0100BA1B4FE00D186B883A
:102A1000E3BB6B681B1A0C3BB34246D36A6806F1F2
:102A20001803121A0C3A4FF001094FF4F55A9A4262
:102A30002DD383190C33CA184FF00008A2F800A058
:102A4000A2F80280D5F80480C2E901806B60A5F885
:102A5000029050680C37B84202D001F1080283504E
:102A6000206930440C3020616269824200D260618A
:102A7000A5F800A0654512D1A06842887AB16268C5
:102A800090420CD040680844A060F6E70DE0A5F83D
:102A9000029068686A1A801A22691044E3E70748BE
:102AA00000F058F905F10C009EE768688242ADD845
:102AB000024800F04FF996E7300000209C1B0020F0
:102AC00010B50346994211D28C189C420ED9811838
:102AD00004E000BF14F8013D01F8013D521EF9D297
:102AE00010BD00BF11F8014B03F8014B521EF9D283
:102AF00010BD000010B50346CCB2042A1AD38107DA
:102B000018D1194644EA042343EA034306E008C106
:102B1000103A08C141F8083B41F8043C102AF6D2AB
:102B200001E008C1121F042AFBD20B4602E000BFDD
:102B300003F8014B521EFBD210BD2DE9F0410F46A8
:102B4000064600F045F80546C068FFF741FF04005F
:102B500019D00021EA68FFF7CDFF267200206072CD
:102B600008223946204600F015FBFDF7DBFA064641
:102B700004F10C01281DFFF7F3FE3046FDF7D6FAED
:102B80002046BDE8F0810020FBE770B50446002038
:102B90002072FDF7C7FA054604F10C00FFF705FFA8
:102BA0002846FDF7C3FA2046BDE87040FFF734BC65
:102BB00070B5044600202072FDF7B4FA054604F112
:102BC0000C00FFF7F2FE2846BDE87040FDF7AEBAF4
:102BD000074A002102EB01131B78834202D102EB6A
:102BE00001107047491C0429F4DB002070470000E5
:102BF000480000202DE9F041044616460D460846DF
:102C0000FFF7E6FF074645F08000207208223146B4
:102C1000204600F0BFFAFDF785FA054604F10C01E5
:102C2000381DFFF79DFE2846BDE8F041FDF77EBA4E
:102C3000007A000601D5012070470020704700008F
:102C400070B5FDF76FFA114C05466088B0B9A06801
:102C5000FEF7FEF80E49401E626851F83010143934
:102C600091420BD020700B486160007801F11C018B
:102C7000002802F11C0006D0FDF75BFA2846BDE8EB
:102C80007040FDF753BAFDF754FAF7E788000020CB
:102C9000BC1B00202400002010B50446FDF742FABA
:102CA000024694F834000E4920F00F00401C84F8CE
:102CB000340094F8350001EBC00104F114004B68B6
:102CC00018604B68A361486006486161A16B836826
:102CD00019438160BDE810401046FDF727BA000097
:102CE000BC1B00208800002010B50446FDF71AFA2E
:102CF00004F11401D1E900235360D1E900231A60E3
:102D0000A161616194F83520074951F8323001EB37
:102D1000C2018B4204D10549A36B8A689A438A6039
:102D2000BDE81040FDF702BABC1B0020880000205F
:102D30002DE9F04116460A461F4605460121FFF7D8
:102D400059FF05F11404AC616C61AE836F72002011
:102D5000BDE8F08170B50446FDF7E4F90546606909
:102D600004F11401884208D0143800F075FB28469D
:102D7000FDF7DCF9FFF764FF05E0A08B401CA083A2
:102D80002846FDF7D3F9002070BD2DE9F341044634
:102D9000FDF7C8F90746A08B28B1401EA08338462E
:102DA000FDF7C4F946E0019870B100F073FB0646E8
:102DB0000020306304F11405647A304600F0A6FB6D
:102DC000F4B1012C21D106E03846FDF7AFF96FF0E0
:102DD0000100BDE8FC812C680EE096F8351094F8EF
:102DE0002120A4F11400914205D206F114011430FF
:102DF000FFF7CBFD02E02468AC42EED1AC4204D137
:102E000006F114012846FFF7C0FD0198002809DDEE
:102E100006F1440001AA0021044600F029FC2046E6
:102E200000F062FC3846FDF781F9FFF709FF306BCF
:102E30000028CED10020CCE770B50446807E012862
:102E400025D8208B4FF00005C0050ED5E06CFFF7AC
:102E5000E3FAE564208B4FF4807220F480712183C3
:102E6000206C1121436820469847208B40050ED5E1
:102E7000206DFFF7D1FA2565208B4FF4806220F496
:102E800080612183206C11214368204698470020EF
:102E900070BD70B5002401290DD0022907D0032987
:102EA0000ED0036C5B6898470446204670BDC18A0B
:102EB00041F0200102E0C18A21F02001C182F4E743
:102EC000002AF2D05168856CC1F38F23C5F38F259A
:102ED000AB4203D0837E0BB1072070BD1368C0E9FD
:102EE0001131817E0029E0D0016C0B6811469847B2
:102EF000DBE710B50021C1640165026C12681AB1EC
:102F000000F1440190470146084610BD2DE9F0410B
:102F1000044600270E46C80506D5E08AC00503D43E
:102F20006FF00700BDE8F081700602D4207E4006F5
:102F300000D54027F0B22083E16C4FF00008A1B12A
:102F4000F10502D540F480712183206D00284FEAFD
:102F5000465030D0002803DA208B40F48060208374
:102F6000208B384320830020DCE7F005EDD5A06CF2
:102F7000C0F38F200C30FFF72BFD05460C300346C5
:102F80002860A06C0021C0F38F221846FFF7B2FD25
:102F9000A5F80480A5F80680C5F80880E564208BB4
:102FA0004FF4807240F480712183206C10214368BB
:102FB00020469847C9E70028D2DA0C20FFF708FD21
:102FC0000546FFF7EBF82565208B4FF4806240F44F
:102FD00080612183206C1021436820469847BFE719
:102FE0002DE9F04793B30746008BC0052FD5164651
:102FF0001C4699464FF0000AD7F84C50FDF792F85E
:10300000E988AA88914201D1AA6882B12A6812F897
:103010000180491C89B2E980BA6CC2F38F229142C7
:1030200001D3A5F806A0A968012903D004E0FDF7A3
:103030007DF807E0C5F808A0FDF778F806F8018BE1
:10304000641EDBD1A9EB0400BDE8F087FFE7002098
:10305000FAE72DE9F0413BB1074616461D461C46EE
:1030600030780A2803D00AE00020BDE8F081387EDD
:10307000400604D5386C0D21826838469047386C7C
:1030800031788268384690476D1E06F10106E7D117
:103090002046EAE770B50446FFF72AFC044D20B944
:1030A00000F0F8F908B1046370BD6C6070BD0000F9
:1030B0002800002008B509A0FFF72EFC0AA0FFF7A2
:1030C0002BFC12A0009002230122032112A0FFF783
:1030D00023FCBDE8084018A0FFF71EBC0A205C20B6
:1030E0007C202F0A000000002D205254202D20208B
:1030F000202020546872656164204F70657261748D
:10310000696E672053797374656D0A0044656320A6
:103110002036203230313900202F207C205C2020C6
:1031200020202025642E25642E2564206275696C7C
:10313000642025730A0000002032303036202D2014
:103140003230313920436F70797269676874206258
:10315000792072742D746872656164207465616D84
:103160000A000000014600E0491C0A78002AFBD151
:10317000081A704710B5002308E0047811F8013BE5
:10318000E31A5BB223B9401C14B1521E002AF4D1D9
:10319000184610BD10B5002A07D0034611F8014BA0
:1031A00003F8014B2CB1521EF8D110BD03F8011BDE
:1031B00000E00021521EF9D110BD00000A46C11CDA
:1031C00010B522F0030321F00301182B20D9A3F13D
:1031D00018048C421CD3114C581A18382160E06036
:1031E0004FF4F5520A8000230C30C1E901034B80F3
:1031F0004B68194461600A8001224A8048608860F7
:10320000002307A10848FFF793FD2068A06010BDC8
:103210000146BDE8104005A0FFF77EBB300000204E
:1032200068656170000000009C1B00206D656D20CA
:10323000696E69742C206572726F722062656769AD
:103240006E206164647265737320307825782C2059
:10325000616E6420656E64206164647265737320BE
:10326000307825780A00000010B50A4900230A4C7E
:103270004B80184604EBC002401C526012602028AC
:10328000F8DB1F20087003484B600C308B604060F7
:10329000006010BD88000020BC1B002010B5074C4A
:1032A000A068FDF7D5FD0649401E51F830001438DE
:1032B0006060BDE810401C30FCF769BF880000204A
:1032C000BC1B00200148406000607047A000002047
:1032D00070472DE9FF478946DDE90C7682460146B5
:1032E0001D4690460020FFF728FC04000DD028461C
:1032F000FFF76EFB60B103968DE8A10043464A4696
:1033000051462046FEF74EF8204604B0BDE8F0874F
:103310002046FFF73AFC0020F7E700F0C1B80000B4
:1033200070B513480468FCF7FDFE05462046FFF71C
:10333000DBFC042084F8340004F1440000F0B0F910
:103340002046FFF775FC012801D1206F58B104F128
:1033500014010848FFF70BFB2846FCF7E7FEBDE821
:103360007040FFF76DBC2046FFF722FCF4E7000039
:103370008C0000209400002000F002F8FCE7000020
:1033800070B527E0FCF7CEFE0546FDF793FD40B390
:1033900016480168A1F11404D1E900024260D1E9A4
:1033A0000002106049600960FFF710F8216F09B151
:1033B000204688472046FFF73BFC01280FD0FFF747
:1033C00013F82846FCF7B2FEA06AFFF725F820465E
:1033D000FFF7DBFBFDF76EFD0028D3D170BDFFF7D3
:1033E00003F82846BDE87040FCF7A0BE940000201A
:1033F0001FB5202308481F22D9008DE80F000023A5
:10340000064A07A1783800F00FF804B00248BDE87A
:103410001040783800F064B81C1A00207933000896
:103420007469646C650000002DE9FF5F92460EAA86
:103430000C4692E8E0010A46994683460021FFF7D0
:10344000D9FB8DE8E0014B46524621465846FDF730
:10345000A9FF04B0BDE8F09F70B5044690F83400B1
:1034600000F00F00022802D04FF0FF3070BDFCF7D3
:1034700059FE054604F11400FFF7A0FA04F14400D8
:1034800000F078F92846FCF751FE2046FFF704FCCF
:10349000002070BD01480068704700008C000020CB
:1034A000F1B5FCF73FFE05460C480468204600F0E5
:1034B0002DF804F144006A460021064600F0D8F8D1
:1034C000304600F011F92846FCF730FEFFF7B8FB54
:1034D000206B801C00D120630020F8BD8C000020F0
:1034E00010B590F83610012280F835108A4002217C
:1034F000826380F83410FFF7AFFF0348006808B11B
:10350000FFF79EFB002010BD8C00002070B5044624
:1035100090F8340000F00F00012802D04FF0FF3087
:1035200070BDFCF7FFFD054694F8340020F00F0055
:10353000801C84F834002046FFF7D6FB04F14400D9
:1035400000F018F92846FCF7F1FD002070BD10B519
:1035500004466FF00100206304F11400FFF72EFA17
:103560002046FFF799FBBDE81040FFF769BB00005C
:1035700070B5FCF7D7FD06461348046894F834008C
:1035800000F00F00012819D1D4E90501884215D0B7
:1035900004F114000546FFF711FA94F835000B49C1
:1035A00001EBC00041680D604168696045602860BA
:1035B0003046FCF7BBFDFFF743FB02E03046FCF76B
:1035C000B5FD002070BD00008C000020BC1B002059
:1035D000014800687047000020000020094810B52D
:1035E0000168491C0160FFF755FF016C491E016429
:1035F00003D1C16B0164FFF7BBFFBDE8104000F0D1
:1036000003B80000200000202DE9F041FFF7E0FFA3
:103610000646FCF787FD0746144D1EE060696FF013
:103620000041301A143C88421AD22046FDF708FFA8
:10363000D4E907108847FFF7CBFF0646607A810779
:1036400008D5C10706D020F001006072204600F0C6
:103650004BF802E020F0010060722C68AC42DDD132
:103660003846BDE8F041FCF761BD0000A000002035
:1036700049B1012904D0022908D003290ED109E05B
:10368000406A10600AE01168416207E0417A21F067
:10369000020102E0417A41F00201417200207047CC
:1036A00070B50546FCF73EFD04462846FDF7C8FE0A
:1036B0002046FCF73BFD2846FFF77AFA002070BD54
:1036C0002DE9F8439046DDE908450A461F460646BF
:1036D0000921FFF78FFA23463A46414630460095C6
:1036E000FDF7A0FEBDE8F883F8B50446FCF71AFD27
:1036F00005462046FDF7A4FE607A20F001006072C6
:103700002846FCF713FDFFF763FF616A0844A062D7
:10371000FCF708FD0546164A0020009202EBC002A5
:10372000694653686FF0004C5DF820200BE012688A
:10373000A2EBC0067769A66AB74202D0BE1B6645F7
:1037400003D341F820209A42F1D10948001F0168B3
:10375000491C016004F114010098FFF70FF9607A29
:1037600040F0010060722846FCF7E0FC0020F8BD44
:10377000A000002070B50446407AC0070ED0FCF7C8
:10378000D1FC05462046FDF75BFE2846FCF7CEFC43
:10379000607A20F001006072002070BD4FF0FF30B1
:1037A00070BD00002DE9FF4F471804467F1E83B00F
:1037B00080464FF0FF394FF0200A4FF0250BA7420B
:1037C00000D24F4608E1252803D0BC4200D8207023
:1037D00081E000260599491C059108782D2811D013
:1037E0002B2812D0202813D0232814D0302815D00D
:1037F0000A784D46303A0A2A13D205A800F029F972
:1038000005461AE046F01006E4E746F00406E1E754
:1038100046F00806DEE746F02006DBE746F0010644
:10382000D8E72A2809D10698491C059120C8069096
:10383000002D02DA6D4246F01006CDF80090059892
:1038400001782E2918D1401C05900178A1F1300291
:103850000A2A04D205A800F0FCF8009008E02A2902
:1038600008D1401C0590069802C8069000910846B1
:10387000002801DA00200090059A002011786829BC
:1038800001D06C2902D1521C0846059211780A23F6
:103890006F296ED00CDC63291FD004DC252979D078
:1038A00058290DD17FE0642901D0692908D17EE033
:1038B000702960D073292CD075297AD0782974D0DA
:1038C000BC4201D884F800B00598641C0178D1B3DB
:1038D000BC4200D82170641C7BE0F00608D450463E
:1038E0006D1E002D04DDBC4200D82070641CF7E77B
:1038F0000698BC4210F8041B069000D82170504670
:1039000002E0BC4200D82070641C6D1E002DF8DC63
:103910005FE0069808C8069003B93DA31846FFF774
:1039200021FC0099002902DD884200DD0846F106ED
:103930000AD451462A466D1E824205DDBC4200D89B
:103940002170641CF6E750E0002106E0BC4201D87B
:103950001A782270491C5B1C641C8142F6DB5246BB
:1039600029466D1E814234DDBC4200D82270641CA1
:10397000F6E716E00EE0681C02D1082546F00106C5
:1039800000980296CDE9005006981023394604C8E5
:1039900006901AE0BC429ED884F800B09BE708E08D
:1039A00003E0082305E046F04006102301E046F05E
:1039B00002066C2801D068281AD0069804C8069020
:1039C00000983946CDE9005002962046FEF70EFBDE
:1039D00004460598401C05900598007800287FF45F
:1039E000F2AEBC420DD820700CE0401E0590F0E70E
:1039F000069830F8041B06908AB2B007E0D512B2E0
:103A0000DEE7387007B0A4EB0800BDE8F08F0000D7
:103A1000284E554C4C29000000207047002070476C
:103A2000002070470020704710B5FCF77BFBFEF7C5
:103A30005DFDFFF73FFBFFF745FCFFF715FCFEF7C9
:103A40006DFBFFF745FCFFF7D3FCFFF727FC0020D9
:103A500010BD10B5014600206FF02F0307E0541C85
:103A60000C60127800EB800003EB400010440A6801
:103A70001478303C0A2CF2D310BD10B5C06B0C2367
:103A8000026C526802600A6842600022C0E9053296
:103A9000C2610B7903F00F03082B01D0092B01D071
:103AA000826002E04FF4805383600B79C3F301130B
:103AB0000BB1012B01D0C26002E04FF40053C36090
:103AC0000979C1F3811119B1012903D0022904D068
:103AD000026105E04FF4C06101E04FF480610161D3
:103AE000FDF734F8002801D04FF0FF3010BDC06B57
:103AF0000122102918D0112929D1016C91F908103F
:103B000000290CDB01F01F039A404909890001F1EB
:103B1000E021C1F88021BFF34F8FBFF36F8F0068A2
:103B2000C16821F0200111E0016C91F90810002911
:103B300008DB01F01F039A404909890001F1E021E7
:103B4000C1F800210068C16841F02001C160002077
:103B50007047C16B4FF0FF3009680A68D243920684
:103B600001D44868C0B27047C06B6FF04002036870
:103B70001A600268516000680168C9434906FBD4B5
:103B800001207047C26B82B011680B68DB439B0653
:103B900006D4CB689B0603D5012102B0FEF7D6BD43
:103BA0000868C043000702D40868486800900868A5
:103BB000C043400702D40868486800900868C043C2
:103BC000800702D40868486800900868C043C007AE
:103BD00002D10868486800900868C043C00502D454
:103BE0006FF48070086010680168C943890502D4C9
:103BF0006FF40071016010680168C943090602D4BE
:103C00006FF08001016010680168C943490602D461
:103C10006FF04001016010680168C943890602D451
:103C20006FF02001016002B07047000010B518A0CD
:103C3000FEF772FE1A4C21881AA0FEF76DFE20884E
:103C4000C00702D01DA0FEF767FE2088800702D5BE
:103C50001DA0FEF761FE2088400702D51DA0FEF7DB
:103C60005BFE2088000702D51CA0FEF755FE2088C9
:103C7000C00502D51BA0FEF74FFE2088800502D5A7
:103C80001BA0FEF749FEBDE8104004A0FEF744BEAD
:103C90007573616765206661756C743A0A0000008F
:103CA0002AED00E05343425F434653525F5546536B
:103CB000523A30782530325820000000554E4445A5
:103CC00046494E5354522000494E56535441544590
:103CD00020000000494E5650432000004E4F4350F4
:103CE00020000000554E414C49474E4544200000FD
:103CF00044495642595A45524F20000010B5FFF72B
:103D0000D9F9002010BD000000C201000800010028
:103D10007B3A0008EF3A0008693B0008533B000873
:103D2000000000000000000001020304060708096B
:103D30000000000001020304000001000200010075
:103D40000300010002000100040001000200010064
:103D50000300010002000100050001000200010053
:103D60000300010002000100040001000200010044
:103D70000300010002000100060001000200010032
:103D80000300010002000100040001000200010024
:103D90000300010002000100050001000200010013
:103DA0000300010002000100040001000200010004
:103DB00003000100020001000700010002000100F1
:103DC00003000100020001000400010002000100E4
:103DD00003000100020001000500010002000100D3
:103DE00003000100020001000400010002000100C4
:103DF00003000100020001000600010002000100B2
:103E000003000100020001000400010002000100A3
:103E10000300010002000100050001000200010092
:103E20000300010002000100040001000200010083
:103E300003000100020001003031323334353637DF
:103E40003839616263646566003031323334353647
:103E5000373839414243444546006C6973745F6D9D
:103E6000656D0068656C6C6F0076657273696F6E66
:103E7000005F5F636D645F76657273696F6E006C7F
:103E80006973745F746872656164005F5F636D6419
:103E90005F6C6973745F746872656164006C6973E8
:103EA000745F73656D005F5F636D645F6C697374ED
:103EB0005F73656D006C6973745F74696D65720022
:103EC0005F5F636D645F6C6973745F74696D657265
:103ED000006C6973745F646576696365005F5F6336
:103EE0006D645F6C6973745F646576696365006CAB
:103EF00069737400704000082C400008C03F00083F
:103F0000D43F0008EC3F0008BC3F00080840000810
:103F1000F83F0008AC40000818400008C8400008FE
:103F2000B4400008E03F0008BC4000084C400008D6
:103F30009C4000083C4000086040000884400008A5
:103F4000A44000085F5F636D645F68656C70005F2C
:103F50005F636D645F7073005F5F636D645F74695E
:103F60006D65005F5F636D645F667265650000008C
:103F70007561727431000000252D2A2E7320707235
:103F800069202073746174757320202020202073B1
:103F9000702020202020737461636B2073697A6520
:103FA000206D61782075736564206C65667420747B
:103FB00069636B20206572726F720A00525443006D
:103FC0004E6574776F726B20496E746572666163BB
:103FD000650000004D544420446576696365000027
:103FE00053504920446576696365000043414E2083
:103FF0004465766963650000477261706869632093
:104000004465766963650000536F756E642044658E
:10401000766963650000000055534220536C617659
:10402000652044657669636500000000426C6F633B
:104030006B2044657669636500000000506F727400
:10404000616C20446576696365000000504D205026
:10405000736575646F2044657669636500000000D0
:1040600054696D65722044657669636500000000DF
:104070004368617261637465722044657669636543
:10408000000000004D697363656C6C616E656F754F
:1040900073204465766963650000000050697065AF
:1040A00000000000556E6B6E6F776E004932432042
:1040B0004275730053504920427573005344494F71
:1040C000204275730000000055534220486F7374FE
:1040D0002042757300000000253A00081D3A0008D0
:1040E000193A000885160008213A00085A3E0008CF
:1040F000D91A0008633E0008511A0008693E0008FA
:10410000FD3C0008713E0008FD3C00087F3E0008B1
:10411000571B00088B3E0008571B00089D3E0008F7
:10412000451B0008A63E0008451B0008B53E0008D8
:10413000691B0008C03E0008691B0008D13E00084A
:10414000C51A0008DD3E0008C51A0008EF3E000849
:10415000711A0008443F0008091E00084F3F00087C
:1041600047150008583F000851150008633F000834
:104170003D1500089441000800000020C800000020
:10418000940E00085C420008C8000020782000005F
:10419000A40E0008703F0008003801402500000010
:1041A00000000000010000001000000000000000FE
:1041B0000024F400000000000000000000000000E7
:1041C00000000000000000000000000000000000EF
:1041D00000000000000000000000000000000000DF
:1041E0004C0000204C00002078000000010000007E
:1041F0005C0000205C00002020000000080000009F
:104200006C0000206C00002040000000090000004D
:104210007C0000207C0000202C000000000000003A
:10422000000000000000000000000000000000008E
:10423000000000000000000000000000000000007E
:10424000000000000000000000000000000000006E
:0C42500000000000000000000000000062
:04000005080000ED02
:00000001FF
